{
  "contractName": "FlightSuretyData",
  "abi": [
    {
      "inputs": [],
      "stateMutability": "nonpayable",
      "type": "constructor"
    },
    {
      "stateMutability": "payable",
      "type": "receive"
    },
    {
      "inputs": [
        {
          "internalType": "address",
          "name": "contractAddress",
          "type": "address"
        }
      ],
      "name": "authorizeCaller",
      "outputs": [],
      "stateMutability": "nonpayable",
      "type": "function"
    },
    {
      "inputs": [],
      "name": "isOperational",
      "outputs": [
        {
          "internalType": "bool",
          "name": "",
          "type": "bool"
        }
      ],
      "stateMutability": "view",
      "type": "function"
    },
    {
      "inputs": [
        {
          "internalType": "bool",
          "name": "mode",
          "type": "bool"
        }
      ],
      "name": "setOperatingStatus",
      "outputs": [],
      "stateMutability": "nonpayable",
      "type": "function"
    },
    {
      "inputs": [
        {
          "internalType": "address",
          "name": "voter",
          "type": "address"
        },
        {
          "internalType": "address",
          "name": "candidate",
          "type": "address"
        }
      ],
      "name": "vote",
      "outputs": [],
      "stateMutability": "nonpayable",
      "type": "function"
    },
    {
      "inputs": [
        {
          "internalType": "address",
          "name": "_airline",
          "type": "address"
        },
        {
          "internalType": "string",
          "name": "_name",
          "type": "string"
        }
      ],
      "name": "registerAirline",
      "outputs": [],
      "stateMutability": "nonpayable",
      "type": "function"
    },
    {
      "inputs": [
        {
          "internalType": "address",
          "name": "_passenger",
          "type": "address"
        },
        {
          "internalType": "bytes32",
          "name": "_flightKey",
          "type": "bytes32"
        }
      ],
      "name": "buy",
      "outputs": [],
      "stateMutability": "payable",
      "type": "function"
    },
    {
      "inputs": [
        {
          "internalType": "bytes32",
          "name": "_flightKey",
          "type": "bytes32"
        }
      ],
      "name": "creditInsurees",
      "outputs": [],
      "stateMutability": "nonpayable",
      "type": "function"
    },
    {
      "inputs": [
        {
          "internalType": "bytes32",
          "name": "_flightKey",
          "type": "bytes32"
        }
      ],
      "name": "closeInsurees",
      "outputs": [],
      "stateMutability": "nonpayable",
      "type": "function"
    },
    {
      "inputs": [
        {
          "internalType": "address payable",
          "name": "_passenger",
          "type": "address"
        }
      ],
      "name": "pay",
      "outputs": [],
      "stateMutability": "nonpayable",
      "type": "function"
    },
    {
      "inputs": [],
      "name": "fund",
      "outputs": [],
      "stateMutability": "payable",
      "type": "function"
    }
  ],
  "bytecode": "0x60806040526001600060146101000a81548160ff0219169083151502179055503480156200002c57600080fd5b50336000806101000a81548173ffffffffffffffffffffffffffffffffffffffff021916908373ffffffffffffffffffffffffffffffffffffffff1602179055506002600160008060009054906101000a900473ffffffffffffffffffffffffffffffffffffffff1673ffffffffffffffffffffffffffffffffffffffff1673ffffffffffffffffffffffffffffffffffffffff16815260200190815260200160002060000160006101000a81548160ff02191690836002811115620000ee57fe5b02179055506040518060400160405280600981526020017f4169726c696e6520310000000000000000000000000000000000000000000000815250600160008060009054906101000a900473ffffffffffffffffffffffffffffffffffffffff1673ffffffffffffffffffffffffffffffffffffffff1673ffffffffffffffffffffffffffffffffffffffff1681526020019081526020016000206001019080519060200190620001a19291906200022c565b5060036000809054906101000a900473ffffffffffffffffffffffffffffffffffffffff169080600181540180825580915050600190039060005260206000200160009091909190916101000a81548173ffffffffffffffffffffffffffffffffffffffff021916908373ffffffffffffffffffffffffffffffffffffffff160217905550620002db565b828054600181600116156101000203166002900490600052602060002090601f016020900481019282601f106200026f57805160ff1916838001178555620002a0565b82800160010185558215620002a0579182015b828111156200029f57825182559160200191906001019062000282565b5b509050620002af9190620002b3565b5090565b620002d891905b80821115620002d4576000816000905550600101620002ba565b5090565b90565b61143e80620002eb6000396000f3fe6080604052600436106100955760003560e01c8063b60d428811610059578063b60d428814610247578063cc2f6eba14610251578063cceaddf01461028c578063cd905dff146102c7578063ee38a749146102f6576100a4565b80630c11dedd146100a9578063110466ed146100fa5780631afa74e5146101375780632c388d5d146101a85780639058e228146101f9576100a4565b366100a4576100a261039c565b005b600080fd5b3480156100b557600080fd5b506100f8600480360360208110156100cc57600080fd5b81019080803573ffffffffffffffffffffffffffffffffffffffff169060200190929190505050610500565b005b34801561010657600080fd5b506101356004803603602081101561011d57600080fd5b81019080803515159060200190929190505050610639565b005b34801561014357600080fd5b506101a66004803603604081101561015a57600080fd5b81019080803573ffffffffffffffffffffffffffffffffffffffff169060200190929190803573ffffffffffffffffffffffffffffffffffffffff169060200190929190505050610718565b005b3480156101b457600080fd5b506101f7600480360360208110156101cb57600080fd5b81019080803573ffffffffffffffffffffffffffffffffffffffff169060200190929190505050610af6565b005b6102456004803603604081101561020f57600080fd5b81019080803573ffffffffffffffffffffffffffffffffffffffff16906020019092919080359060200190929190505050610c78565b005b61024f61039c565b005b34801561025d57600080fd5b5061028a6004803603602081101561027457600080fd5b8101908080359060200190929190505050610de8565b005b34801561029857600080fd5b506102c5600480360360208110156102af57600080fd5b8101908080359060200190929190505050611026565b005b3480156102d357600080fd5b506102dc611111565b604051808215151515815260200191505060405180910390f35b34801561030257600080fd5b5061039a6004803603604081101561031957600080fd5b81019080803573ffffffffffffffffffffffffffffffffffffffff1690602001909291908035906020019064010000000081111561035657600080fd5b82018360208201111561036857600080fd5b8035906020019184600183028401116401000000008311171561038a57600080fd5b9091929391929390505050611127565b005b6103ee34600260003373ffffffffffffffffffffffffffffffffffffffff1673ffffffffffffffffffffffffffffffffffffffff168152602001908152602001600020546112bd90919063ffffffff16565b50600a600260003373ffffffffffffffffffffffffffffffffffffffff1673ffffffffffffffffffffffffffffffffffffffff16815260200190815260200160002054106104fe576002600160003373ffffffffffffffffffffffffffffffffffffffff1673ffffffffffffffffffffffffffffffffffffffff16815260200190815260200160002060000160006101000a81548160ff0219169083600281111561049557fe5b02179055506003339080600181540180825580915050600190039060005260206000200160009091909190916101000a81548173ffffffffffffffffffffffffffffffffffffffff021916908373ffffffffffffffffffffffffffffffffffffffff1602179055505b565b600060149054906101000a900460ff16610565576040517f08c379a00000000000000000000000000000000000000000000000000000000081526004018080602001828103825260268152602001806113e36026913960400191505060405180910390fd5b6000600660008373ffffffffffffffffffffffffffffffffffffffff1673ffffffffffffffffffffffffffffffffffffffff1681526020019081526020016000205490506000600660008473ffffffffffffffffffffffffffffffffffffffff1673ffffffffffffffffffffffffffffffffffffffff168152602001908152602001600020819055508173ffffffffffffffffffffffffffffffffffffffff166108fc829081150290604051600060405180830381858888f19350505050158015610634573d6000803e3d6000fd5b505050565b6000809054906101000a900473ffffffffffffffffffffffffffffffffffffffff1673ffffffffffffffffffffffffffffffffffffffff163373ffffffffffffffffffffffffffffffffffffffff16146106fb576040517f08c379a000000000000000000000000000000000000000000000000000000000815260040180806020018281038252601d8152602001807f43616c6c6572206973206e6f7420636f6e7472616374206f776e65722e00000081525060200191505060405180910390fd5b80600060146101000a81548160ff02191690831515021790555050565b600060149054906101000a900460ff1661077d576040517f08c379a00000000000000000000000000000000000000000000000000000000081526004018080602001828103825260268152602001806113e36026913960400191505060405180910390fd5b60028081111561078957fe5b600160008473ffffffffffffffffffffffffffffffffffffffff1673ffffffffffffffffffffffffffffffffffffffff16815260200190815260200160002060000160009054906101000a900460ff1660028111156107e457fe5b14610857576040517f08c379a000000000000000000000000000000000000000000000000000000000815260040180806020018281038252601a8152602001807f54686973206169726c696e652063616e206e6f7420766f74652e00000000000081525060200191505060405180910390fd5b600160008273ffffffffffffffffffffffffffffffffffffffff1673ffffffffffffffffffffffffffffffffffffffff168152602001908152602001600020600201829080600181540180825580915050600190039060005260206000200160009091909190916101000a81548173ffffffffffffffffffffffffffffffffffffffff021916908373ffffffffffffffffffffffffffffffffffffffff16021790555060006109556002600160008573ffffffffffffffffffffffffffffffffffffffff1673ffffffffffffffffffffffffffffffffffffffff168152602001908152602001600020600201805490506112d790919063ffffffff16565b1415610a285761097460026003805490506112f590919063ffffffff16565b600160008373ffffffffffffffffffffffffffffffffffffffff1673ffffffffffffffffffffffffffffffffffffffff1681526020019081526020016000206002018054905010610a235760018060008373ffffffffffffffffffffffffffffffffffffffff1673ffffffffffffffffffffffffffffffffffffffff16815260200190815260200160002060000160006101000a81548160ff02191690836002811115610a1d57fe5b02179055505b610af2565b610a4160026003805490506112f590919063ffffffff16565b600160008373ffffffffffffffffffffffffffffffffffffffff1673ffffffffffffffffffffffffffffffffffffffff168152602001908152602001600020600201805490501115610af15760018060008373ffffffffffffffffffffffffffffffffffffffff1673ffffffffffffffffffffffffffffffffffffffff16815260200190815260200160002060000160006101000a81548160ff02191690836002811115610aeb57fe5b02179055505b5b5050565b6000809054906101000a900473ffffffffffffffffffffffffffffffffffffffff1673ffffffffffffffffffffffffffffffffffffffff163373ffffffffffffffffffffffffffffffffffffffff1614610bb8576040517f08c379a000000000000000000000000000000000000000000000000000000000815260040180806020018281038252601d8152602001807f43616c6c6572206973206e6f7420636f6e7472616374206f776e65722e00000081525060200191505060405180910390fd5b600060149054906101000a900460ff16610c1d576040517f08c379a00000000000000000000000000000000000000000000000000000000081526004018080602001828103825260268152602001806113e36026913960400191505060405180910390fd5b6001600460008373ffffffffffffffffffffffffffffffffffffffff1673ffffffffffffffffffffffffffffffffffffffff16815260200190815260200160002060006101000a81548160ff02191690831515021790555050565b6001341115610cef576040517f08c379a000000000000000000000000000000000000000000000000000000000815260040180806020018281038252600f8152602001807f496e76616c696420616d6f756e742e000000000000000000000000000000000081525060200191505060405180910390fd5b6005600082815260200190815260200160002060405180606001604052808473ffffffffffffffffffffffffffffffffffffffff16815260200134815260200160006001811115610d3c57fe5b815250908060018154018082558091505060019003906000526020600020906003020160009091909190915060008201518160000160006101000a81548173ffffffffffffffffffffffffffffffffffffffff021916908373ffffffffffffffffffffffffffffffffffffffff1602179055506020820151816001015560408201518160020160006101000a81548160ff02191690836001811115610ddd57fe5b021790555050505050565b600060149054906101000a900460ff16610e4d576040517f08c379a00000000000000000000000000000000000000000000000000000000081526004018080602001828103825260268152602001806113e36026913960400191505060405180910390fd5b60008090505b60056000838152602001908152602001600020805490508110156110225760006001811115610e7e57fe5b600560008481526020019081526020016000208281548110610e9c57fe5b906000526020600020906003020160020160009054906101000a900460ff166001811115610ec657fe5b1415611015576001600560008481526020019081526020016000208281548110610eec57fe5b906000526020600020906003020160020160006101000a81548160ff02191690836001811115610f1857fe5b0217905550611013610f766003610f686002600560008881526020019081526020016000208681548110610f4857fe5b9060005260206000209060030201600101546112f590919063ffffffff16565b61130990919063ffffffff16565b60066000600560008781526020019081526020016000208581548110610f9857fe5b906000526020600020906003020160000160009054906101000a900473ffffffffffffffffffffffffffffffffffffffff1673ffffffffffffffffffffffffffffffffffffffff1673ffffffffffffffffffffffffffffffffffffffff168152602001908152602001600020546112bd90919063ffffffff16565b505b8080600101915050610e53565b5050565b600060149054906101000a900460ff1661108b576040517f08c379a00000000000000000000000000000000000000000000000000000000081526004018080602001828103825260268152602001806113e36026913960400191505060405180910390fd5b60008090505b600560008381526020019081526020016000208054905081101561110d5760016005600084815260200190815260200160002082815481106110cf57fe5b906000526020600020906003020160020160006101000a81548160ff021916908360018111156110fb57fe5b02179055508080600101915050611091565b5050565b60008060149054906101000a900460ff16905090565b600060149054906101000a900460ff1661118c576040517f08c379a00000000000000000000000000000000000000000000000000000000081526004018080602001828103825260268152602001806113e36026913960400191505060405180910390fd5b8181600160008673ffffffffffffffffffffffffffffffffffffffff1673ffffffffffffffffffffffffffffffffffffffff16815260200190815260200160002060010191906111dd92919061133d565b506004600380549050116112535760018060008573ffffffffffffffffffffffffffffffffffffffff1673ffffffffffffffffffffffffffffffffffffffff16815260200190815260200160002060000160006101000a81548160ff0219169083600281111561124957fe5b02179055506112b8565b6000600160008573ffffffffffffffffffffffffffffffffffffffff1673ffffffffffffffffffffffffffffffffffffffff16815260200190815260200160002060000160006101000a81548160ff021916908360028111156112b257fe5b02179055505b505050565b60008183019050828110156112ce57fe5b80905092915050565b6000808214156112e357fe5b8183816112ec57fe5b06905092915050565b600081838161130057fe5b04905092915050565b60008083141561131c5760009050611337565b81830290508183828161132b57fe5b041461133357fe5b8090505b92915050565b828054600181600116156101000203166002900490600052602060002090601f016020900481019282601f1061137e57803560ff19168380011785556113ac565b828001600101855582156113ac579182015b828111156113ab578235825591602001919060010190611390565b5b5090506113b991906113bd565b5090565b6113df91905b808211156113db5760008160009055506001016113c3565b5090565b9056fe436f6e74726163742069732063757272656e746c79206e6f74206f7065726174696f6e616c2ea264697066735822122037da7a57d81c91bb92512389d22262ec0b23e0cc68ab14a39d9b95a4e95c754264736f6c634300060a0033",
  "immutableReferences": {},
  "source": "pragma solidity >=0.4.25;\r\n\r\nimport \"../node_modules/openzeppelin-solidity/contracts/math/SafeMath.sol\";\r\n\r\ncontract FlightSuretyData {\r\n    using SafeMath for uint256;\r\n\r\n    /********************************************************************************************/\r\n    /*                                       DATA VARIABLES                                     */\r\n    /********************************************************************************************/\r\n\r\n    enum airlineState {\r\n        Applied,\r\n        Registered,\r\n        Paid\r\n    }\r\n\r\n    struct Airline{\r\n        airlineState state;\r\n        string name;\r\n        address[] approvals;\r\n    }\r\n\r\n    struct InsuranceInfo{\r\n        address passenger;\r\n        uint256 value;\r\n        insuranceState status;\r\n    }\r\n\r\n    enum insuranceState{\r\n        Active,\r\n        Closed\r\n    }\r\n    address private contractOwner;                                      // Account used to deploy contract\r\n    bool private operational = true;                                    // Blocks all state changes throughout the contract if false\r\n    mapping(address => Airline) private airlines;\r\n    mapping(address => uint256) private airlineFunding;\r\n    address[] airlinesArray;\r\n    mapping(address => bool) private authorizedCallers;\r\n    mapping(bytes32 => InsuranceInfo[]) private insurances;\r\n    mapping(address => uint256) private payoutValue;\r\n\r\n    /********************************************************************************************/\r\n    /*                                       EVENT DEFINITIONS                                  */\r\n    /********************************************************************************************/\r\n\r\n    /**\r\n    * @dev Constructor\r\n    *      The deploying account becomes contractOwner\r\n    */\r\n    constructor\r\n                                (\r\n                                )\r\n                                public\r\n    {\r\n        contractOwner = msg.sender;\r\n        airlines[contractOwner].state = airlineState.Paid;\r\n        airlines[contractOwner].name = \"Airline 1\";\r\n        airlinesArray.push(contractOwner);\r\n    }\r\n\r\n    /********************************************************************************************/\r\n    /*                                       FUNCTION MODIFIERS                                 */\r\n    /********************************************************************************************/\r\n\r\n    // Modifiers help avoid duplication of code. They are typically used to validate something\r\n    // before a function is allowed to be executed.\r\n\r\n    /**\r\n    * @dev Modifier that requires the \"operational\" boolean variable to be \"true\"\r\n    *      This is used on all state changing functions to pause the contract in\r\n    *      the event there is an issue that needs to be fixed\r\n    */\r\n    modifier requireIsOperational()\r\n    {\r\n        require(operational, \"Contract is currently not operational.\");\r\n        _;  // All modifiers require an \"_\" which indicates where the function body will be added\r\n    }\r\n\r\n    /**\r\n    * @dev Modifier that requires the \"ContractOwner\" account to be the function caller\r\n    */\r\n    modifier requireContractOwner()\r\n    {\r\n        require(msg.sender == contractOwner, \"Caller is not contract owner.\");\r\n        _;\r\n    }\r\n\r\n    modifier requireAuthorizedCaller()\r\n    {\r\n        require(authorizedCallers[msg.sender] || (msg.sender == contractOwner), \"Caller is not authorized.\");\r\n        _;\r\n    }\r\n\r\n    /********************************************************************************************/\r\n    /*                                       UTILITY FUNCTIONS                                  */\r\n    /********************************************************************************************/\r\n\r\n    function authorizeCaller(address contractAddress) external requireContractOwner requireIsOperational {\r\n        authorizedCallers[contractAddress] = true;\r\n    }\r\n\r\n    /**\r\n    * @dev Get operating status of contract\r\n    *\r\n    * @return A bool that is the current operating status\r\n    */\r\n    function isOperational()\r\n                            public\r\n                            view\r\n                            returns(bool)\r\n    {\r\n        return operational;\r\n    }\r\n\r\n\r\n    /**\r\n    * @dev Sets contract operations on/off\r\n    *\r\n    * When operational mode is disabled, all write transactions except for this one will fail\r\n    */\r\n    function setOperatingStatus\r\n                            (\r\n                                bool mode\r\n                            )\r\n                            external\r\n                            requireContractOwner\r\n    {\r\n        operational = mode;\r\n    }\r\n\r\n    function vote\r\n                            (\r\n                                address voter,\r\n                                address candidate\r\n                            )\r\n                            external\r\n                            requireIsOperational\r\n    {\r\n        require(airlines[voter].state == airlineState.Paid, \"This airline can not vote.\");\r\n        airlines[candidate].approvals.push(voter);\r\n        if(airlines[candidate].approvals.length.mod(2) == 0){\r\n            if (airlines[candidate].approvals.length >= airlinesArray.length.div(2)){\r\n                airlines[candidate].state = airlineState.Registered;\r\n            }\r\n        }\r\n        else{\r\n            if (airlines[candidate].approvals.length > airlinesArray.length.div(2)){\r\n                airlines[candidate].state = airlineState.Registered;\r\n            }\r\n        }\r\n    }\r\n    /********************************************************************************************/\r\n    /*                                     SMART CONTRACT FUNCTIONS                             */\r\n    /********************************************************************************************/\r\n\r\n   /**\r\n    * @dev Add an airline to the registration queue\r\n    *      Can only be called from FlightSuretyApp contract\r\n    *\r\n    */\r\n    function registerAirline\r\n                            (\r\n                                address _airline, string calldata _name\r\n                            )\r\n                            external\r\n                            requireIsOperational\r\n                            // requireAuthorizedCaller\r\n    {\r\n        airlines[_airline].name = _name;\r\n        if(airlinesArray.length <= 4){\r\n            airlines[_airline].state = airlineState.Registered;\r\n        }\r\n        else{\r\n            airlines[_airline].state = airlineState.Applied;\r\n        }\r\n    }\r\n\r\n   /**\r\n    * @dev Buy insurance for a flight\r\n    *\r\n    */\r\n    function buy\r\n                            (\r\n                                address _passenger,\r\n                                bytes32 _flightKey\r\n                            )\r\n                            external\r\n                            payable\r\n    {\r\n        require(msg.value <= 1, \"Invalid amount.\");\r\n        insurances[_flightKey].push(InsuranceInfo({\r\n            passenger: _passenger,\r\n            value: msg.value,\r\n            status: insuranceState.Active\r\n        }));\r\n    }\r\n\r\n    /**\r\n     *  @dev Credits payouts to insurees\r\n    */\r\n    function creditInsurees\r\n                                (\r\n                                    bytes32 _flightKey\r\n                                )\r\n                                external\r\n                                requireIsOperational\r\n    {\r\n        for(uint256 i = 0; i < insurances[_flightKey].length; i++){\r\n            if(insurances[_flightKey][i].status == insuranceState.Active){\r\n                insurances[_flightKey][i].status = insuranceState.Closed;\r\n                payoutValue[insurances[_flightKey][i].passenger].add(insurances[_flightKey][i].value.div(2).mul(3));\r\n            }\r\n        }\r\n    }\r\n\r\n    /**\r\n     *  @dev Closes insurance when flight status is different from \"late due to airline\".\r\n    */\r\n    function closeInsurees\r\n                                (\r\n                                    bytes32 _flightKey\r\n                                )\r\n                                external\r\n                                requireIsOperational\r\n    {\r\n        for(uint256 i = 0; i < insurances[_flightKey].length; i++){\r\n            insurances[_flightKey][i].status = insuranceState.Closed;\r\n        }\r\n    }\r\n\r\n    /**\r\n     *  @dev Transfers eligible payout funds to insuree\r\n     *\r\n    */\r\n    function pay\r\n                            (\r\n                                address payable _passenger\r\n                            )\r\n                            external\r\n                            requireIsOperational\r\n    {\r\n        uint256 amount = payoutValue[_passenger];\r\n        payoutValue[_passenger] = 0;\r\n        _passenger.transfer(amount);\r\n    }\r\n\r\n   /**\r\n    * @dev Initial funding for the insurance. Unless there are too many delayed flights\r\n    *      resulting in insurance payouts, the contract should be self-sustaining\r\n    *\r\n    */\r\n    function fund\r\n                            (\r\n                            )\r\n                            public\r\n                            payable\r\n    {\r\n        airlineFunding[msg.sender].add(msg.value);\r\n        if(airlineFunding[msg.sender] >= 10){\r\n            airlines[msg.sender].state = airlineState.Paid;\r\n            airlinesArray.push(msg.sender);\r\n        }\r\n    }\r\n\r\n    function getFlightKey\r\n                        (\r\n                            address airline,\r\n                            string memory flight,\r\n                            uint256 timestamp\r\n                        )\r\n                        internal\r\n                        pure\r\n                        returns(bytes32)\r\n    {\r\n        return keccak256(abi.encodePacked(airline, flight, timestamp));\r\n    }\r\n\r\n    /**\r\n    * @dev Fallback function for funding smart contract.\r\n    *\r\n    */\r\n    receive ()\r\n                            external\r\n                            payable\r\n    {\r\n        fund();\r\n    }\r\n\r\n\r\n}\r\n\r\n",
  "sourcePath": "D:\\Blockchain Developer Nanodegree\\Project 4\\FlightSurety\\contracts\\FlightSuretyData.sol",
  "compiler": {
    "name": "solc",
    "version": "0.6.10+commit.00c0fcaf.Emscripten.clang"
  },
  "schemaVersion": "3.2.0",
  "updatedAt": "2020-06-15T21:07:48.312Z",
  "devdoc": {
    "methods": {
      "buy(address,bytes32)": {
        "details": "Buy insurance for a flight"
      },
      "closeInsurees(bytes32)": {
        "details": "Closes insurance when flight status is different from \"late due to airline\"."
      },
      "constructor": {
        "details": "Constructor      The deploying account becomes contractOwner"
      },
      "creditInsurees(bytes32)": {
        "details": "Credits payouts to insurees"
      },
      "fund()": {
        "details": "Initial funding for the insurance. Unless there are too many delayed flights      resulting in insurance payouts, the contract should be self-sustaining"
      },
      "isOperational()": {
        "details": "Get operating status of contract",
        "returns": {
          "_0": "A bool that is the current operating status"
        }
      },
      "pay(address)": {
        "details": "Transfers eligible payout funds to insuree"
      },
      "registerAirline(address,string)": {
        "details": "Add an airline to the registration queue      Can only be called from FlightSuretyApp contract"
      },
      "setOperatingStatus(bool)": {
        "details": "Sets contract operations on/off When operational mode is disabled, all write transactions except for this one will fail"
      }
    }
  },
  "userdoc": {
    "methods": {
      "authorizeCaller(address)": {
        "notice": "*****************************************************************************************"
      }
    }
  }
}