{
  "contractName": "FlightSuretyApp",
  "abi": [
    {
      "inputs": [
        {
          "internalType": "address payable",
          "name": "dataContractAddress",
          "type": "address"
        },
        {
          "internalType": "address",
          "name": "firstAirline",
          "type": "address"
        }
      ],
      "stateMutability": "nonpayable",
      "type": "constructor"
    },
    {
      "anonymous": false,
      "inputs": [
        {
          "indexed": false,
          "internalType": "address",
          "name": "airline",
          "type": "address"
        },
        {
          "indexed": false,
          "internalType": "string",
          "name": "flight",
          "type": "string"
        },
        {
          "indexed": false,
          "internalType": "uint256",
          "name": "timestamp",
          "type": "uint256"
        },
        {
          "indexed": false,
          "internalType": "uint8",
          "name": "status",
          "type": "uint8"
        }
      ],
      "name": "FlightStatusInfo",
      "type": "event"
    },
    {
      "anonymous": false,
      "inputs": [
        {
          "indexed": false,
          "internalType": "address",
          "name": "airline",
          "type": "address"
        },
        {
          "indexed": false,
          "internalType": "string",
          "name": "flight",
          "type": "string"
        },
        {
          "indexed": false,
          "internalType": "uint256",
          "name": "timestamp",
          "type": "uint256"
        },
        {
          "indexed": false,
          "internalType": "uint8",
          "name": "status",
          "type": "uint8"
        }
      ],
      "name": "OracleReport",
      "type": "event"
    },
    {
      "anonymous": false,
      "inputs": [
        {
          "indexed": false,
          "internalType": "uint8",
          "name": "index",
          "type": "uint8"
        },
        {
          "indexed": false,
          "internalType": "address",
          "name": "airline",
          "type": "address"
        },
        {
          "indexed": false,
          "internalType": "string",
          "name": "flight",
          "type": "string"
        },
        {
          "indexed": false,
          "internalType": "uint256",
          "name": "timestamp",
          "type": "uint256"
        }
      ],
      "name": "OracleRequest",
      "type": "event"
    },
    {
      "inputs": [],
      "name": "REGISTRATION_FEE",
      "outputs": [
        {
          "internalType": "uint256",
          "name": "",
          "type": "uint256"
        }
      ],
      "stateMutability": "view",
      "type": "function"
    },
    {
      "inputs": [],
      "name": "isOperational",
      "outputs": [
        {
          "internalType": "bool",
          "name": "",
          "type": "bool"
        }
      ],
      "stateMutability": "view",
      "type": "function"
    },
    {
      "inputs": [
        {
          "internalType": "address",
          "name": "_airline",
          "type": "address"
        },
        {
          "internalType": "string",
          "name": "_name",
          "type": "string"
        }
      ],
      "name": "registerAirline",
      "outputs": [],
      "stateMutability": "nonpayable",
      "type": "function"
    },
    {
      "inputs": [
        {
          "internalType": "address",
          "name": "_airline",
          "type": "address"
        },
        {
          "internalType": "string",
          "name": "_flight",
          "type": "string"
        },
        {
          "internalType": "uint256",
          "name": "_timestamp",
          "type": "uint256"
        }
      ],
      "name": "registerFlight",
      "outputs": [],
      "stateMutability": "payable",
      "type": "function"
    },
    {
      "inputs": [
        {
          "internalType": "address",
          "name": "airline",
          "type": "address"
        },
        {
          "internalType": "string",
          "name": "flight",
          "type": "string"
        },
        {
          "internalType": "uint256",
          "name": "timestamp",
          "type": "uint256"
        }
      ],
      "name": "fetchFlightStatus",
      "outputs": [],
      "stateMutability": "nonpayable",
      "type": "function"
    },
    {
      "inputs": [],
      "name": "registerOracle",
      "outputs": [],
      "stateMutability": "payable",
      "type": "function"
    },
    {
      "inputs": [],
      "name": "getMyIndexes",
      "outputs": [
        {
          "internalType": "uint8[3]",
          "name": "",
          "type": "uint8[3]"
        }
      ],
      "stateMutability": "view",
      "type": "function"
    },
    {
      "inputs": [
        {
          "internalType": "uint8",
          "name": "index",
          "type": "uint8"
        },
        {
          "internalType": "address",
          "name": "airline",
          "type": "address"
        },
        {
          "internalType": "string",
          "name": "flight",
          "type": "string"
        },
        {
          "internalType": "uint256",
          "name": "timestamp",
          "type": "uint256"
        },
        {
          "internalType": "uint8",
          "name": "statusCode",
          "type": "uint8"
        }
      ],
      "name": "submitOracleResponse",
      "outputs": [],
      "stateMutability": "nonpayable",
      "type": "function"
    }
  ],
  "bytecode": "0x60806040526000600360006101000a81548160ff021916908360ff1602179055503480156200002d57600080fd5b5060405162001f3138038062001f31833981810160405260408110156200005357600080fd5b81019080805190602001909291908051906020019092919050505033600160006101000a81548173ffffffffffffffffffffffffffffffffffffffff021916908373ffffffffffffffffffffffffffffffffffffffff160217905550816000806101000a81548173ffffffffffffffffffffffffffffffffffffffff021916908373ffffffffffffffffffffffffffffffffffffffff1602179055506000809054906101000a900473ffffffffffffffffffffffffffffffffffffffff1673ffffffffffffffffffffffffffffffffffffffff16632c388d5d306040518263ffffffff1660e01b8152600401808273ffffffffffffffffffffffffffffffffffffffff1673ffffffffffffffffffffffffffffffffffffffff168152602001915050600060405180830381600087803b1580156200019057600080fd5b505af1158015620001a5573d6000803e3d6000fd5b50505050620001f0816040518060400160405280600d81526020017f4669727374204169726c696e6500000000000000000000000000000000000000815250620001f860201b60201c565b505062000422565b6000809054906101000a900473ffffffffffffffffffffffffffffffffffffffff1673ffffffffffffffffffffffffffffffffffffffff1663cd905dff6040518163ffffffff1660e01b815260040160206040518083038186803b1580156200026057600080fd5b505afa15801562000275573d6000803e3d6000fd5b505050506040513d60208110156200028c57600080fd5b8101908080519060200190929190505050620002f4576040517f08c379a000000000000000000000000000000000000000000000000000000000815260040180806020018281038252602581526020018062001f0c6025913960400191505060405180910390fd5b6000809054906101000a900473ffffffffffffffffffffffffffffffffffffffff1673ffffffffffffffffffffffffffffffffffffffff1663ee38a74983836040518363ffffffff1660e01b8152600401808373ffffffffffffffffffffffffffffffffffffffff1673ffffffffffffffffffffffffffffffffffffffff16815260200180602001828103825283818151815260200191508051906020019080838360005b83811015620003b657808201518184015260208101905062000399565b50505050905090810190601f168015620003e45780820380516001836020036101000a031916815260200191505b509350505050600060405180830381600087803b1580156200040557600080fd5b505af11580156200041a573d6000803e3d6000fd5b505050505050565b611ada80620004326000396000f3fe60806040526004361061007b5760003560e01c8063c10f27001161004e578063c10f2700146101ed578063cd905dff146102b7578063ee38a749146102e6578063f83f11c0146103ce5761007b565b8063339d2590146100805780633cc0be9c1461008a5780635f1cc0e61461016f57806364b4f751146101c2575b600080fd5b61008861047e565b005b61016d600480360360608110156100a057600080fd5b81019080803573ffffffffffffffffffffffffffffffffffffffff169060200190929190803590602001906401000000008111156100dd57600080fd5b8201836020820111156100ef57600080fd5b8035906020019184600183028401116401000000008311171561011157600080fd5b91908080601f016020809104026020016040519081016040528093929190818152602001838380828437600081840152601f19601f820116905080830192505050505050509192919290803590602001909291905050506105a4565b005b34801561017b57600080fd5b5061018461083c565b6040518082600360200280838360005b838110156101af578082015181840152602081019050610194565b5050505090500191505060405180910390f35b3480156101ce57600080fd5b506101d76109af565b6040518082815260200191505060405180910390f35b3480156101f957600080fd5b506102b5600480360360a081101561021057600080fd5b81019080803560ff169060200190929190803573ffffffffffffffffffffffffffffffffffffffff1690602001909291908035906020019064010000000081111561025a57600080fd5b82018360208201111561026c57600080fd5b8035906020019184600183028401116401000000008311171561028e57600080fd5b909192939192939080359060200190929190803560ff1690602001909291905050506109bb565b005b3480156102c357600080fd5b506102cc610ed9565b604051808215151515815260200191505060405180910390f35b3480156102f257600080fd5b506103cc6004803603604081101561030957600080fd5b81019080803573ffffffffffffffffffffffffffffffffffffffff1690602001909291908035906020019064010000000081111561034657600080fd5b82018360208201111561035857600080fd5b8035906020019184600183028401116401000000008311171561037a57600080fd5b91908080601f016020809104026020016040519081016040528093929190818152602001838380828437600081840152601f19601f820116905080830192505050505050509192919290505050610f82565b005b3480156103da57600080fd5b5061047c600480360360608110156103f157600080fd5b81019080803573ffffffffffffffffffffffffffffffffffffffff1690602001909291908035906020019064010000000081111561042e57600080fd5b82018360208201111561044057600080fd5b8035906020019184600183028401116401000000008311171561046257600080fd5b9091929391929390803590602001909291905050506111a2565b005b670de0b6b3a76400003410156104fc576040517f08c379a000000000000000000000000000000000000000000000000000000000815260040180806020018281038252601c8152602001807f526567697374726174696f6e206665652069732072657175697265640000000081525060200191505060405180910390fd5b610504611941565b61050d33611393565b9050604051806040016040528060011515815260200182815250600460003373ffffffffffffffffffffffffffffffffffffffff1673ffffffffffffffffffffffffffffffffffffffff16815260200190815260200160002060008201518160000160006101000a81548160ff02191690831515021790555060208201518160010190600361059d929190611963565b5090505050565b6000809054906101000a900473ffffffffffffffffffffffffffffffffffffffff1673ffffffffffffffffffffffffffffffffffffffff1663cd905dff6040518163ffffffff1660e01b815260040160206040518083038186803b15801561060b57600080fd5b505afa15801561061f573d6000803e3d6000fd5b505050506040513d602081101561063557600080fd5b810190808051906020019092919050505061069b576040517f08c379a0000000000000000000000000000000000000000000000000000000008152600401808060200182810382526025815260200180611a5d6025913960400191505060405180910390fd5b6000838383604051602001808473ffffffffffffffffffffffffffffffffffffffff1673ffffffffffffffffffffffffffffffffffffffff1660601b815260140183805190602001908083835b6020831061070b57805182526020820191506020810190506020830392506106e8565b6001836020036101000a03801982511681845116808217855250505050505090500182815260200193505050506040516020818303038152906040528051906020012090506040518060800160405280600115158152602001600060ff1681526020018381526020018573ffffffffffffffffffffffffffffffffffffffff168152506002600083815260200190815260200160002060008201518160000160006101000a81548160ff02191690831515021790555060208201518160000160016101000a81548160ff021916908360ff1602179055506040820151816001015560608201518160020160006101000a81548173ffffffffffffffffffffffffffffffffffffffff021916908373ffffffffffffffffffffffffffffffffffffffff16021790555090505050505050565b610844611941565b600460003373ffffffffffffffffffffffffffffffffffffffff1673ffffffffffffffffffffffffffffffffffffffff16815260200190815260200160002060000160009054906101000a900460ff16610906576040517f08c379a000000000000000000000000000000000000000000000000000000000815260040180806020018281038252601b8152602001807f4e6f74207265676973746572656420617320616e206f7261636c65000000000081525060200191505060405180910390fd5b600460003373ffffffffffffffffffffffffffffffffffffffff1673ffffffffffffffffffffffffffffffffffffffff1681526020019081526020016000206001016003806020026040519081016040528092919082600380156109a5576020028201916000905b82829054906101000a900460ff1660ff168152602001906001019060208260000104928301926001038202915080841161096e5790505b5050505050905090565b670de0b6b3a764000081565b8560ff16600460003373ffffffffffffffffffffffffffffffffffffffff1673ffffffffffffffffffffffffffffffffffffffff168152602001908152602001600020600101600060038110610a0d57fe5b602091828204019190069054906101000a900460ff1660ff161480610a9a57508560ff16600460003373ffffffffffffffffffffffffffffffffffffffff1673ffffffffffffffffffffffffffffffffffffffff168152602001908152602001600020600101600160038110610a7f57fe5b602091828204019190069054906101000a900460ff1660ff16145b80610b0d57508560ff16600460003373ffffffffffffffffffffffffffffffffffffffff1673ffffffffffffffffffffffffffffffffffffffff168152602001908152602001600020600101600260038110610af257fe5b602091828204019190069054906101000a900460ff1660ff16145b610b62576040517f08c379a0000000000000000000000000000000000000000000000000000000008152600401808060200182810382526023815260200180611a826023913960400191505060405180910390fd5b60008686868686604051602001808660ff1660ff1660f81b81526001018573ffffffffffffffffffffffffffffffffffffffff1673ffffffffffffffffffffffffffffffffffffffff1660601b815260140184848082843780830192505050828152602001955050505050506040516020818303038152906040528051906020012090506005600082815260200190815260200160002060000160149054906101000a900460ff16610c5f576040517f08c379a000000000000000000000000000000000000000000000000000000000815260040180806020018281038252602f815260200180611a2e602f913960400191505060405180910390fd5b6005600082815260200190815260200160002060010160008360ff1660ff168152602001908152602001600020339080600181540180825580915050600190039060005260206000200160009091909190916101000a81548173ffffffffffffffffffffffffffffffffffffffff021916908373ffffffffffffffffffffffffffffffffffffffff1602179055507f43c853095c2752648493c88b4baac4d580d2594ffb00c6f1d4242d844514f7838686868686604051808673ffffffffffffffffffffffffffffffffffffffff1673ffffffffffffffffffffffffffffffffffffffff168152602001806020018481526020018360ff1660ff1681526020018281038252868682818152602001925080828437600081840152601f19601f820116905080830192505050965050505050505060405180910390a160036005600083815260200190815260200160002060010160008460ff1660ff1681526020019081526020016000208054905010610ed0577fe23f5229de535c091e3b7bec2665f5d698192d3b31393066e8987b7a05076b6c8686868686604051808673ffffffffffffffffffffffffffffffffffffffff1673ffffffffffffffffffffffffffffffffffffffff168152602001806020018481526020018360ff1660ff1681526020018281038252868682818152602001925080828437600081840152601f19601f820116905080830192505050965050505050505060405180910390a1610ecf8686868080601f016020809104026020016040519081016040528093929190818152602001838380828437600081840152601f19601f82011690508083019250505050505050858561151f565b5b50505050505050565b60008060009054906101000a900473ffffffffffffffffffffffffffffffffffffffff1673ffffffffffffffffffffffffffffffffffffffff1663cd905dff6040518163ffffffff1660e01b815260040160206040518083038186803b158015610f4257600080fd5b505afa158015610f56573d6000803e3d6000fd5b505050506040513d6020811015610f6c57600080fd5b8101908080519060200190929190505050905090565b6000809054906101000a900473ffffffffffffffffffffffffffffffffffffffff1673ffffffffffffffffffffffffffffffffffffffff1663cd905dff6040518163ffffffff1660e01b815260040160206040518083038186803b158015610fe957600080fd5b505afa158015610ffd573d6000803e3d6000fd5b505050506040513d602081101561101357600080fd5b8101908080519060200190929190505050611079576040517f08c379a0000000000000000000000000000000000000000000000000000000008152600401808060200182810382526025815260200180611a5d6025913960400191505060405180910390fd5b6000809054906101000a900473ffffffffffffffffffffffffffffffffffffffff1673ffffffffffffffffffffffffffffffffffffffff1663ee38a74983836040518363ffffffff1660e01b8152600401808373ffffffffffffffffffffffffffffffffffffffff1673ffffffffffffffffffffffffffffffffffffffff16815260200180602001828103825283818151815260200191508051906020019080838360005b8381101561113957808201518184015260208101905061111e565b50505050905090810190601f1680156111665780820380516001836020036101000a031916815260200191505b509350505050600060405180830381600087803b15801561118657600080fd5b505af115801561119a573d6000803e3d6000fd5b505050505050565b60006111ad33611851565b905060008186868686604051602001808660ff1660ff1660f81b81526001018573ffffffffffffffffffffffffffffffffffffffff1673ffffffffffffffffffffffffffffffffffffffff1660601b8152601401848480828437808301925050508281526020019550505050505060405160208183030381529060405280519060200120905060405180604001604052803373ffffffffffffffffffffffffffffffffffffffff168152602001600115158152506005600083815260200190815260200160002060008201518160000160006101000a81548173ffffffffffffffffffffffffffffffffffffffff021916908373ffffffffffffffffffffffffffffffffffffffff16021790555060208201518160000160146101000a81548160ff0219169083151502179055509050507f3ed01f2c3fc24c6b329d931e35b03e390d23497d22b3f90e15b600343e93df118287878787604051808660ff1660ff1681526020018573ffffffffffffffffffffffffffffffffffffffff1673ffffffffffffffffffffffffffffffffffffffff168152602001806020018381526020018281038252858582818152602001925080828437600081840152601f19601f820116905080830192505050965050505050505060405180910390a1505050505050565b61139b611941565b6113a3611941565b6113ac83611851565b816000600381106113b957fe5b602002019060ff16908160ff1681525050806000600381106113d757fe5b6020020151816001600381106113e957fe5b602002019060ff16908160ff16815250505b8060006003811061140857fe5b602002015160ff168160016003811061141d57fe5b602002015160ff1614156114575761143483611851565b8160016003811061144157fe5b602002019060ff16908160ff16815250506113fb565b8060016003811061146457fe5b60200201518160026003811061147657fe5b602002019060ff16908160ff16815250505b8060006003811061149557fe5b602002015160ff16816002600381106114aa57fe5b602002015160ff1614806114e55750806001600381106114c657fe5b602002015160ff16816002600381106114db57fe5b602002015160ff16145b15611516576114f383611851565b8160026003811061150057fe5b602002019060ff16908160ff1681525050611488565b80915050919050565b6000809054906101000a900473ffffffffffffffffffffffffffffffffffffffff1673ffffffffffffffffffffffffffffffffffffffff1663cd905dff6040518163ffffffff1660e01b815260040160206040518083038186803b15801561158657600080fd5b505afa15801561159a573d6000803e3d6000fd5b505050506040513d60208110156115b057600080fd5b8101908080519060200190929190505050611616576040517f08c379a0000000000000000000000000000000000000000000000000000000008152600401808060200182810382526025815260200180611a5d6025913960400191505060405180910390fd5b6000848484604051602001808473ffffffffffffffffffffffffffffffffffffffff1673ffffffffffffffffffffffffffffffffffffffff1660601b815260140183805190602001908083835b602083106116865780518252602082019150602081019050602083039250611663565b6001836020036101000a0380198251168184511680821785525050505050509050018281526020019350505050604051602081830303815290604052805190602001209050816002600083815260200190815260200160002060000160016101000a81548160ff021916908360ff160217905550601460ff166002600083815260200190815260200160002060000160019054906101000a900460ff1660ff1614156117bd576000809054906101000a900473ffffffffffffffffffffffffffffffffffffffff1673ffffffffffffffffffffffffffffffffffffffff1663cc2f6eba826040518263ffffffff1660e01b815260040180828152602001915050600060405180830381600087803b1580156117a057600080fd5b505af11580156117b4573d6000803e3d6000fd5b5050505061184a565b6000809054906101000a900473ffffffffffffffffffffffffffffffffffffffff1673ffffffffffffffffffffffffffffffffffffffff1663cceaddf0826040518263ffffffff1660e01b815260040180828152602001915050600060405180830381600087803b15801561183157600080fd5b505af1158015611845573d6000803e3d6000fd5b505050505b5050505050565b600080600a905060008160ff166003600081819054906101000a900460ff168092919060010191906101000a81548160ff021916908360ff16021790555060ff1643034085604051602001808381526020018273ffffffffffffffffffffffffffffffffffffffff1673ffffffffffffffffffffffffffffffffffffffff1660601b8152601401925050506040516020818303038152906040528051906020012060001c816118fc57fe5b06905060fa600360009054906101000a900460ff1660ff161115611937576000600360006101000a81548160ff021916908360ff1602179055505b8092505050919050565b6040518060600160405280600390602082028036833780820191505090505090565b826003601f016020900481019282156119ec5791602002820160005b838211156119bd57835183826101000a81548160ff021916908360ff160217905550926020019260010160208160000104928301926001030261197f565b80156119ea5782816101000a81549060ff02191690556001016020816000010492830192600103026119bd565b505b5090506119f991906119fd565b5090565b611a2a91905b80821115611a2657600081816101000a81549060ff021916905550600101611a03565b5090565b9056fe466c69676874206f722074696d657374616d7020646f206e6f74206d61746368206f7261636c652072657175657374436f6e74726163742069732063757272656e746c79206e6f74206f7065726174696f6e616c496e64657820646f6573206e6f74206d61746368206f7261636c652072657175657374a26469706673582212202b7c32a32cf7b83358ce8f5e688fd38acf02f4863ae734b7a9125cad5beb17dd64736f6c634300060a0033436f6e74726163742069732063757272656e746c79206e6f74206f7065726174696f6e616c",
  "immutableReferences": {},
  "source": "pragma solidity >=0.4.25;\r\n\r\n// It's important to avoid vulnerabilities due to numeric overflow bugs\r\n// OpenZeppelin's SafeMath library, when used correctly, protects agains such bugs\r\n// More info: https://www.nccgroup.trust/us/about-us/newsroom-and-events/blog/2018/november/smart-contract-insecurity-bad-arithmetic/\r\n\r\nimport \"../node_modules/openzeppelin-solidity/contracts/math/SafeMath.sol\";\r\nimport \"./FlightSuretyData.sol\";\r\n\r\n/************************************************** */\r\n/* FlightSurety Smart Contract                      */\r\n/************************************************** */\r\ncontract FlightSuretyApp {\r\n    using SafeMath for uint256; // Allow SafeMath functions to be called for all uint256 types (similar to \"prototype\" in Javascript)\r\n    FlightSuretyData dataContract;\r\n\r\n    /********************************************************************************************/\r\n    /*                                       DATA VARIABLES                                     */\r\n    /********************************************************************************************/\r\n\r\n    // Flight status codes\r\n    uint8 private constant STATUS_CODE_UNKNOWN = 0;\r\n    uint8 private constant STATUS_CODE_ON_TIME = 10;\r\n    uint8 private constant STATUS_CODE_LATE_AIRLINE = 20;\r\n    uint8 private constant STATUS_CODE_LATE_WEATHER = 30;\r\n    uint8 private constant STATUS_CODE_LATE_TECHNICAL = 40;\r\n    uint8 private constant STATUS_CODE_LATE_OTHER = 50;\r\n\r\n    address private contractOwner;          // Account used to deploy contract\r\n\r\n    struct Flight {\r\n        bool isRegistered;\r\n        uint8 statusCode;\r\n        uint256 updatedTimestamp;\r\n        address airline;\r\n    }\r\n    mapping(bytes32 => Flight) private flights;\r\n\r\n\r\n    /********************************************************************************************/\r\n    /*                                       FUNCTION MODIFIERS                                 */\r\n    /********************************************************************************************/\r\n\r\n    // Modifiers help avoid duplication of code. They are typically used to validate something\r\n    // before a function is allowed to be executed.\r\n\r\n    /**\r\n    * @dev Modifier that requires the \"operational\" boolean variable to be \"true\"\r\n    *      This is used on all state changing functions to pause the contract in\r\n    *      the event there is an issue that needs to be fixed\r\n    */\r\n    modifier requireIsOperational()\r\n    {\r\n         // Modify to call data contract's status\r\n        require(dataContract.isOperational(), \"Contract is currently not operational\");\r\n        _;  // All modifiers require an \"_\" which indicates where the function body will be added\r\n    }\r\n\r\n    /**\r\n    * @dev Modifier that requires the \"ContractOwner\" account to be the function caller\r\n    */\r\n    modifier requireContractOwner()\r\n    {\r\n        require(msg.sender == contractOwner, \"Caller is not contract owner\");\r\n        _;\r\n    }\r\n\r\n    /********************************************************************************************/\r\n    /*                                       CONSTRUCTOR                                        */\r\n    /********************************************************************************************/\r\n\r\n    /**\r\n    * @dev Contract constructor\r\n    *\r\n    */\r\n\r\n    constructor\r\n                                (\r\n                                    address payable dataContractAddress,\r\n                                    address firstAirline\r\n                                )\r\n                                public\r\n    {\r\n        contractOwner = msg.sender;\r\n        dataContract = FlightSuretyData(dataContractAddress);\r\n        dataContract.authorizeCaller(address(this));\r\n        registerAirline(firstAirline, \"First Airline\");\r\n    }\r\n\r\n    /********************************************************************************************/\r\n    /*                                       UTILITY FUNCTIONS                                  */\r\n    /********************************************************************************************/\r\n\r\n    function isOperational()\r\n                            public\r\n                            view\r\n                            returns(bool)\r\n    {\r\n        return dataContract.isOperational();  // Modify to call data contract's status\r\n    }\r\n\r\n    /********************************************************************************************/\r\n    /*                                     SMART CONTRACT FUNCTIONS                             */\r\n    /********************************************************************************************/\r\n\r\n\r\n   /**\r\n    * @dev Add an airline to the registration queue\r\n    *\r\n    */\r\n    function registerAirline\r\n                            (\r\n                                address _airline,\r\n                                string memory _name\r\n                            )\r\n                            public\r\n                            requireIsOperational\r\n    {\r\n        dataContract.registerAirline(_airline, _name);\r\n    }\r\n\r\n\r\n   /**\r\n    * @dev Register a future flight for insuring.\r\n    *\r\n    */\r\n    function registerFlight\r\n                                (\r\n                                    address _airline,\r\n                                    string memory _flight,\r\n                                    uint256 _timestamp\r\n                                )\r\n                                public\r\n                                payable\r\n                                requireIsOperational\r\n    {\r\n        bytes32 _flightKey = keccak256(abi.encodePacked(_airline, _flight, _timestamp));\r\n        flights[_flightKey] = Flight({\r\n            isRegistered: true,\r\n            statusCode: STATUS_CODE_UNKNOWN,\r\n            updatedTimestamp: _timestamp,\r\n            airline: _airline});\r\n    }\r\n\r\n   /**\r\n    * @dev Called after oracle has updated flight status\r\n    *\r\n    */\r\n    function processFlightStatus\r\n                                (\r\n                                    address _airline,\r\n                                    string memory _flight,\r\n                                    uint256 _timestamp,\r\n                                    uint8 _statusCode\r\n                                )\r\n                                internal\r\n                                requireIsOperational\r\n    {\r\n        bytes32 _flightKey = keccak256(abi.encodePacked(_airline, _flight, _timestamp));\r\n        flights[_flightKey].statusCode = _statusCode;\r\n        if(flights[_flightKey].statusCode == STATUS_CODE_LATE_AIRLINE){\r\n            dataContract.creditInsurees(_flightKey);\r\n        }\r\n        else{\r\n            dataContract.closeInsurees(_flightKey);\r\n        }\r\n    }\r\n\r\n\r\n    // Generate a request for oracles to fetch flight information\r\n    function fetchFlightStatus\r\n                        (\r\n                            address airline,\r\n                            string calldata flight,\r\n                            uint256 timestamp\r\n                        )\r\n                        external\r\n    {\r\n        uint8 index = getRandomIndex(msg.sender);\r\n\r\n        // Generate a unique key for storing the request\r\n        bytes32 key = keccak256(abi.encodePacked(index, airline, flight, timestamp));\r\n        oracleResponses[key] = ResponseInfo({\r\n                                                requester: msg.sender,\r\n                                                isOpen: true\r\n                                            });\r\n\r\n        emit OracleRequest(index, airline, flight, timestamp);\r\n    }\r\n\r\n\r\n// region ORACLE MANAGEMENT\r\n\r\n    // Incremented to add pseudo-randomness at various points\r\n    uint8 private nonce = 0;\r\n\r\n    // Fee to be paid when registering oracle\r\n    uint256 public constant REGISTRATION_FEE = 1 ether;\r\n\r\n    // Number of oracles that must respond for valid status\r\n    uint256 private constant MIN_RESPONSES = 3;\r\n\r\n\r\n    struct Oracle {\r\n        bool isRegistered;\r\n        uint8[3] indexes;\r\n    }\r\n\r\n    // Track all registered oracles\r\n    mapping(address => Oracle) private oracles;\r\n\r\n    // Model for responses from oracles\r\n    struct ResponseInfo {\r\n        address requester;                              // Account that requested status\r\n        bool isOpen;                                    // If open, oracle responses are accepted\r\n        mapping(uint8 => address[]) responses;          // Mapping key is the status code reported\r\n                                                        // This lets us group responses and identify\r\n                                                        // the response that majority of the oracles\r\n    }\r\n\r\n    // Track all oracle responses\r\n    // Key = hash(index, flight, timestamp)\r\n    mapping(bytes32 => ResponseInfo) private oracleResponses;\r\n\r\n    // Event fired each time an oracle submits a response\r\n    event FlightStatusInfo(address airline, string flight, uint256 timestamp, uint8 status);\r\n\r\n    event OracleReport(address airline, string flight, uint256 timestamp, uint8 status);\r\n\r\n    // Event fired when flight status request is submitted\r\n    // Oracles track this and if they have a matching index\r\n    // they fetch data and submit a response\r\n    event OracleRequest(uint8 index, address airline, string flight, uint256 timestamp);\r\n\r\n\r\n    // Register an oracle with the contract\r\n    function registerOracle\r\n                            (\r\n                            )\r\n                            external\r\n                            payable\r\n    {\r\n        // Require registration fee\r\n        require(msg.value >= REGISTRATION_FEE, \"Registration fee is required\");\r\n\r\n        uint8[3] memory indexes = generateIndexes(msg.sender);\r\n\r\n        oracles[msg.sender] = Oracle({\r\n                                        isRegistered: true,\r\n                                        indexes: indexes\r\n                                    });\r\n    }\r\n\r\n    function getMyIndexes\r\n                            (\r\n                            )\r\n                            external\r\n                            view\r\n                            returns(uint8[3] memory)\r\n    {\r\n        require(oracles[msg.sender].isRegistered, \"Not registered as an oracle\");\r\n\r\n        return oracles[msg.sender].indexes;\r\n    }\r\n\r\n\r\n\r\n\r\n    // Called by oracle when a response is available to an outstanding request\r\n    // For the response to be accepted, there must be a pending request that is open\r\n    // and matches one of the three Indexes randomly assigned to the oracle at the\r\n    // time of registration (i.e. uninvited oracles are not welcome)\r\n    function submitOracleResponse\r\n                        (\r\n                            uint8 index,\r\n                            address airline,\r\n                            string calldata flight,\r\n                            uint256 timestamp,\r\n                            uint8 statusCode\r\n                        )\r\n                        external\r\n    {\r\n        require((oracles[msg.sender].indexes[0] == index) || (oracles[msg.sender].indexes[1] == index) || (oracles[msg.sender].indexes[2] == index), \"Index does not match oracle request\");\r\n\r\n\r\n        bytes32 key = keccak256(abi.encodePacked(index, airline, flight, timestamp));\r\n        require(oracleResponses[key].isOpen, \"Flight or timestamp do not match oracle request\");\r\n\r\n        oracleResponses[key].responses[statusCode].push(msg.sender);\r\n\r\n        // Information isn't considered verified until at least MIN_RESPONSES\r\n        // oracles respond with the *** same *** information\r\n        emit OracleReport(airline, flight, timestamp, statusCode);\r\n        if (oracleResponses[key].responses[statusCode].length >= MIN_RESPONSES) {\r\n\r\n            emit FlightStatusInfo(airline, flight, timestamp, statusCode);\r\n\r\n            // Handle flight status as appropriate\r\n            processFlightStatus(airline, flight, timestamp, statusCode);\r\n        }\r\n    }\r\n\r\n\r\n    function getFlightKey\r\n                        (\r\n                            address airline,\r\n                            string memory flight,\r\n                            uint256 timestamp\r\n                        )\r\n                        internal\r\n                        pure\r\n                        returns(bytes32)\r\n    {\r\n        return keccak256(abi.encodePacked(airline, flight, timestamp));\r\n    }\r\n\r\n    // Returns array of three non-duplicating integers from 0-9\r\n    function generateIndexes\r\n                            (\r\n                                address account\r\n                            )\r\n                            internal\r\n                            returns(uint8[3] memory)\r\n    {\r\n        uint8[3] memory indexes;\r\n        indexes[0] = getRandomIndex(account);\r\n\r\n        indexes[1] = indexes[0];\r\n        while(indexes[1] == indexes[0]) {\r\n            indexes[1] = getRandomIndex(account);\r\n        }\r\n\r\n        indexes[2] = indexes[1];\r\n        while((indexes[2] == indexes[0]) || (indexes[2] == indexes[1])) {\r\n            indexes[2] = getRandomIndex(account);\r\n        }\r\n\r\n        return indexes;\r\n    }\r\n\r\n    // Returns array of three non-duplicating integers from 0-9\r\n    function getRandomIndex\r\n                            (\r\n                                address account\r\n                            )\r\n                            internal\r\n                            returns (uint8)\r\n    {\r\n        uint8 maxValue = 10;\r\n\r\n        // Pseudo random number...the incrementing nonce adds variation\r\n        uint8 random = uint8(uint256(keccak256(abi.encodePacked(blockhash(block.number - nonce++), account))) % maxValue);\r\n\r\n        if (nonce > 250) {\r\n            nonce = 0;  // Can only fetch blockhashes for last 256 blocks so we adapt\r\n        }\r\n\r\n        return random;\r\n    }\r\n\r\n// endregion\r\n\r\n}\r\n",
  "sourcePath": "D:\\Blockchain Developer Nanodegree\\Project 4\\FlightSurety\\contracts\\FlightSuretyApp.sol",
  "compiler": {
    "name": "solc",
    "version": "0.6.10+commit.00c0fcaf.Emscripten.clang"
  },
  "schemaVersion": "3.2.0",
  "updatedAt": "2020-06-15T21:07:48.300Z",
  "devdoc": {
    "methods": {
      "constructor": {
        "details": "Contract constructor"
      },
      "registerAirline(address,string)": {
        "details": "Add an airline to the registration queue"
      },
      "registerFlight(address,string,uint256)": {
        "details": "Register a future flight for insuring."
      }
    }
  },
  "userdoc": {
    "methods": {
      "isOperational()": {
        "notice": "*****************************************************************************************"
      }
    },
    "notice": "************************************************ "
  }
}